:1000000009C016C06CC014C013C012C011C010C00B
:100010000FC00EC011241FBECFE9CDBF20E0A0E667
:10002000B0E001C01D92AC36B207E1F7FAD0E6C1EC
:10003000E7CF98E0C09A87FFC09800C0880FC098AB
:100040009150C1F70895CF93DF93D82F862FC42FF7
:10005000F894EFDF8D2FEDDF8C2FEBDF7894DF91BD
:10006000CF910895282F382F3F70EFE0F0E0E61B86
:10007000F109F595E795FF27832F632FB6D190E01F
:100080000E2E02C0959587950A94E2F791E0980F9D
:100090006FE0631B862FA9D1482F50E002C0559511
:1000A0004795EA95E2F781E0840F30E044E035952A
:1000B00027954A95E1F72130310541F0223031058D
:1000C00049F0232B59F440E0692F07C0492F682FCE
:1000D00080E003C0482F60E0892FB5CF08951F92BC
:1000E0000F920FB60F9211242F933F934F935F936C
:1000F0006F937F938F939F9386B321E083FB882731
:1001000080F9822796B39295917092272091620090
:10011000821709F479C080936200209161009217E0
:1001200009F472C0909361002091640030916500E1
:10013000891303C031952195310940916A0050918E
:100140006B00240F351F30936B0020936A0021E071
:10015000891320E040916000622F70E050E0641746
:100160007507C1F0891308C0809164009091650003
:1001700091958195910904C08091640090916500EA
:1001800040916A0050916B00840F951F90936B0013
:1001900080936A0040916A0050916B0080916800E2
:1001A00090916900481759078CF480916300882367
:1001B00029F0809166009091670004C080916800EA
:1001C0009091690090936B0080936A0040916A005F
:1001D00050916B008091660090916700841795079D
:1001E0008CF480916300882329F0809168009091BD
:1001F000690004C0809166009091670090936B0045
:1002000080936A00209360009F918F917F916F91FE
:100210005F914F913F912F910F900FBE0F901F90C4
:10022000189580E888B983E085BD85B7877E8061B1
:1002300085BFB89AC39AC49AC29AAB9A86B391E022
:1002400083FB882780F989278093620086B3829593
:1002500081709827909361002091620090916100D5
:1002600081E0291380E0809360008BB780628BBFB0
:10027000AA9A7894D8E0812CA5E07A2E912CC0E03F
:10028000B4E0CB2ED12C1EE1A12EB12C01E010E068
:1002900080E6E82EF12C66246394B29B5EC0C130E8
:1002A000B9F070F0C23041F1C330B9F780916A0003
:1002B00090916B0095958795982E58E0552E42C0E9
:1002C00085B7806285BF889585B78F7D85BFE5CF6F
:1002D00060916A0070916B0075956795762E862FF8
:1002E00084D0482EF8E05F2E442D642D842DABDEA3
:1002F0005A945110F9CF2CC0D150E9F4D82D78E0A0
:10030000572E672D8D2FAEDE86E08D0F803310F0D7
:1003100086ED8D0F5A94552011F0D82FF2CF83948B
:100320009FE2981508F4812C80916A0090916B00EF
:1003300095958795D82F8FED94EC0197F1F700C034
:100340000000ABCF672D892D8DDE5A945110FACF66
:1003500082EA92E00197F1F7F3CF8FEB9DE50197E9
:10036000F1F700C00000B29BFECF8FEB9DE5019737
:10037000F1F700C00000CF5FC430E0F4C130E9F015
:10038000C33009F08ACF1092690010926800F09291
:100390006700E09266001093650000936400892D69
:1003A00090E0880F991F90936B0080936A00609291
:1003B000630073CFB998C0E070CFB99AD09269004A
:1003C000C0926800B0926700A0926600109365002A
:1003D00000936400872D90E0880F991F90936B0025
:1003E00080936A001092630058CF002480FD060EAF
:1003F000660F11F08695D1F7802D0895F894FFCF00
:00000001FF
